:020000020000FC
:100000000C94400018950000189500001895000009
:10001000189500001895000018950000189500002C
:10002000189500001895000018950000189500001C
:0C00300018950000189500000C94AC001E
:1000800008E00EBF0FEF0DBF0CE204B9F89400E6D4
:100090000093C00006E00093C20000E10093C4009A
:1000A00000E00093C50008E00093C100A0E6A09323
:1000B0007C0000E000937B00B7EDB0937A0004E190
:1000C00007BD02E004BD02E005BD00916E00087F9F
:1000D000026000936E0008E5002E08E5102E2D9AB0
:1000E00004D0000000002D980CC052ED6BE47BEBB7
:1000F0007A95F1F76A95E1F75A95D1F7000000007B
:100100000895789400000000032F047011F001E3BB
:1001100001C000E30093C6000091C00005FFFCCFC2
:1001200000917A00007169F300917C0000FD0AC023
:1001300000C0039500937C00809179008695800D26
:10014000282E07C0A0937C00909179009695910D80
:10015000392EB0937A00D5CF0F930FB70F93139525
:10016000121509F43B7F131509F4377F1A3F31F458
:10017000239510E0283011F420E03C6035B90F9150
:060180000FBF0F9118955E
:00000001FF
